:020000040000FA
:10000000680200106D010000710100007301000022
:100010007501000077010000790100000000000078
:100020000000000000000000000000007B01000054
:100030007D010000000000007F0100008101000040
:1000400083010000830100008301000083010000A0
:100050008301000083010000830100008301000090
:100060008301000083010000830100008301000080
:100070008301000083010000830100008301000070
:100080008301000083010000F901000083010000EA
:100090008301000083010000830100008301000050
:1000A0008301000083010000830100008301000040
:1000B0008301000083010000830100008301000030
:1000C00083010000830100008301000000F002F8BA
:1000D00000F03CF80AA090E8000C82448344AAF1A6
:1000E0000107DA4501D100F031F8AFF2090EBAE8A4
:1000F0000F0013F0010F18BFFB1A43F0010318475C
:100100000002000020020000103A24BF78C878C125
:10011000FAD8520724BF30C830C144BF04680C600D
:10012000704700000023002400250026103A28BF55
:1001300078C1FBD8520728BF30C148BF0B60704759
:100140001FB500F0C8F81FBD10B510BD00F087F84E
:100150001146FFF7F5FF00F06DF800F0A5F803B4C5
:10016000FFF7F2FF03BC00F0AFF8000008480047BB
:10017000FEE7FEE7FEE7FEE7FEE7FEE7FEE7FEE757
:10018000FEE7FEE703480449024A044B70470000BB
:10019000CD00000068000010680200106800001028
:1001A0004FF48010254908610120254908604FF06F
:1001B00000002449C1F84C014FF4806022490860D6
:1001C00000BF4FF012004FF0010101FA00F14FEAB9
:1001D00050104FF0E02202EB8000C0F8001100BF89
:1001E0001A48006C40F0FF00184908640846C06DCA
:1001F00040F0FF00C865704715490A68012101FAFF
:1002000002F0144A11601149896D41EA00010F4A58
:1002100091651146C96D21EA0001D1650C49096853
:1002200001F101010A4A11601146096801F0070154
:1002300011607047FFF7B4FF00BFFEE700C0024047
:1002400048C10F4000C00F40B480024000C00920E8
:100250000000001040C10F4070477047704775465E
:1002600000F028F8AE4605006946534620F0070026
:10027000854618B020B5FFF785FFBDE820404FF058
:1002800000064FF000074FF000084FF0000B21F080
:100290000701AC46ACE8C009ACE8C009ACE8C0094D
:1002A000ACE8C0098D4670470446AFF30080204695
:1002B000FFF755FF004870470400001001487047E1
:1002C000704700BF0800001001491820ABBEFEE7D0
:1002D00026000200704710B5FFF7F0FF4FF0000155
:1002E000016010BD000000000000000000000000E0
:1002F000000000000000000000000000FFFFFFFF02
:1003000020030000000000100400000008010000AD
:100310002403000004000010640200002401000017
:0403200000000000D9
:04000005000000CD2A
:00000001FF
